{
  "contractName": "StudentNote",
  "abi": [
    {
      "anonymous": false,
      "inputs": [
        {
          "indexed": true,
          "internalType": "address",
          "name": "oldOwner",
          "type": "address"
        },
        {
          "indexed": true,
          "internalType": "address",
          "name": "newOwner",
          "type": "address"
        }
      ],
      "name": "OwnerSet",
      "type": "event"
    },
    {
      "inputs": [
        {
          "internalType": "address",
          "name": "newOwner",
          "type": "address"
        }
      ],
      "name": "changeOwner",
      "outputs": [],
      "stateMutability": "nonpayable",
      "type": "function"
    },
    {
      "inputs": [],
      "name": "getOwner",
      "outputs": [
        {
          "internalType": "address",
          "name": "",
          "type": "address"
        }
      ],
      "stateMutability": "view",
      "type": "function",
      "constant": true
    },
    {
      "inputs": [
        {
          "internalType": "string",
          "name": "_studentId",
          "type": "string"
        },
        {
          "internalType": "uint256",
          "name": "_note",
          "type": "uint256"
        }
      ],
      "name": "evaluate",
      "outputs": [],
      "stateMutability": "nonpayable",
      "type": "function"
    },
    {
      "inputs": [
        {
          "internalType": "string",
          "name": "_studentId",
          "type": "string"
        }
      ],
      "name": "seeNotes",
      "outputs": [
        {
          "internalType": "uint256",
          "name": "",
          "type": "uint256"
        }
      ],
      "stateMutability": "view",
      "type": "function",
      "constant": true
    }
  ],
  "bytecode": "0x608060405234801561001057600080fd5b50336000806101000a81548173ffffffffffffffffffffffffffffffffffffffff021916908373ffffffffffffffffffffffffffffffffffffffff16021790555060008054906101000a900473ffffffffffffffffffffffffffffffffffffffff1673ffffffffffffffffffffffffffffffffffffffff16600073ffffffffffffffffffffffffffffffffffffffff167f342827c97908e5e2f71151c08502a66d44b6f758e3ac2f1de95f02eb95f0a73560405160405180910390a36107c1806100db6000396000f3fe608060405234801561001057600080fd5b506004361061004c5760003560e01c80637b81880c14610051578063893d20e81461006d578063a6f9dae11461008b578063e199aaf7146100a7575b600080fd5b61006b600480360381019061006691906104f9565b6100d7565b005b6100756101ad565b6040516100829190610596565b60405180910390f35b6100a560048036038101906100a091906105dd565b6101d6565b005b6100c160048036038101906100bc919061060a565b610321565b6040516100ce9190610662565b60405180910390f35b60008054906101000a900473ffffffffffffffffffffffffffffffffffffffff1673ffffffffffffffffffffffffffffffffffffffff163373ffffffffffffffffffffffffffffffffffffffff1614610165576040517f08c379a000000000000000000000000000000000000000000000000000000000815260040161015c906106da565b60405180910390fd5b6000826040516020016101789190610774565b604051602081830303815290604052805190602001209050816001600083815260200190815260200160002081905550505050565b60008060009054906101000a900473ffffffffffffffffffffffffffffffffffffffff16905090565b60008054906101000a900473ffffffffffffffffffffffffffffffffffffffff1673ffffffffffffffffffffffffffffffffffffffff163373ffffffffffffffffffffffffffffffffffffffff1614610264576040517f08c379a000000000000000000000000000000000000000000000000000000000815260040161025b906106da565b60405180910390fd5b8073ffffffffffffffffffffffffffffffffffffffff1660008054906101000a900473ffffffffffffffffffffffffffffffffffffffff1673ffffffffffffffffffffffffffffffffffffffff167f342827c97908e5e2f71151c08502a66d44b6f758e3ac2f1de95f02eb95f0a73560405160405180910390a3806000806101000a81548173ffffffffffffffffffffffffffffffffffffffff021916908373ffffffffffffffffffffffffffffffffffffffff16021790555050565b600080826040516020016103359190610774565b6040516020818303038152906040528051906020012090506001600082815260200190815260200160002054915050919050565b6000604051905090565b600080fd5b600080fd5b600080fd5b600080fd5b6000601f19601f8301169050919050565b7f4e487b7100000000000000000000000000000000000000000000000000000000600052604160045260246000fd5b6103d082610387565b810181811067ffffffffffffffff821117156103ef576103ee610398565b5b80604052505050565b6000610402610369565b905061040e82826103c7565b919050565b600067ffffffffffffffff82111561042e5761042d610398565b5b61043782610387565b9050602081019050919050565b82818337600083830152505050565b600061046661046184610413565b6103f8565b90508281526020810184848401111561048257610481610382565b5b61048d848285610444565b509392505050565b600082601f8301126104aa576104a961037d565b5b81356104ba848260208601610453565b91505092915050565b6000819050919050565b6104d6816104c3565b81146104e157600080fd5b50565b6000813590506104f3816104cd565b92915050565b600080604083850312156105105761050f610373565b5b600083013567ffffffffffffffff81111561052e5761052d610378565b5b61053a85828601610495565b925050602061054b858286016104e4565b9150509250929050565b600073ffffffffffffffffffffffffffffffffffffffff82169050919050565b600061058082610555565b9050919050565b61059081610575565b82525050565b60006020820190506105ab6000830184610587565b92915050565b6105ba81610575565b81146105c557600080fd5b50565b6000813590506105d7816105b1565b92915050565b6000602082840312156105f3576105f2610373565b5b6000610601848285016105c8565b91505092915050565b6000602082840312156106205761061f610373565b5b600082013567ffffffffffffffff81111561063e5761063d610378565b5b61064a84828501610495565b91505092915050565b61065c816104c3565b82525050565b60006020820190506106776000830184610653565b92915050565b600082825260208201905092915050565b7f43616c6c6572206973206e6f74206f776e657200000000000000000000000000600082015250565b60006106c460138361067d565b91506106cf8261068e565b602082019050919050565b600060208201905081810360008301526106f3816106b7565b9050919050565b600081519050919050565b600081905092915050565b60005b8381101561072e578082015181840152602081019050610713565b8381111561073d576000848401525b50505050565b600061074e826106fa565b6107588185610705565b9350610768818560208601610710565b80840191505092915050565b60006107808284610743565b91508190509291505056fea26469706673582212207375d59410f5d6e3d77df5976d9da1f165406f6b06f3c723783f0f83d59c73b764736f6c634300080a0033",
  "immutableReferences": {},
  "source": "// SPDX-License-Identifier: GPL-3.0\r\npragma solidity >=0.7.0 <0.9.0;\r\nimport \"./Owner.sol\";\r\n\r\ncontract StudentNote is Owner {\r\n  \r\n  mapping(bytes32 => uint256) StudentNotes;\r\n\r\n  function evaluate(string memory _studentId, uint256 _note) public isOwner() {\r\n    bytes32 hash_studentId = keccak256(abi.encodePacked(_studentId));\r\n    StudentNotes[hash_studentId] = _note;\r\n  }\r\n\r\n  function seeNotes(string memory _studentId) public view returns (uint256) {\r\n    bytes32 hash_studentId = keccak256(abi.encodePacked(_studentId));\r\n    return StudentNotes[hash_studentId];\r\n  }\r\n}",
  "sourcePath": "C:\\Workspace\\notes\\blockchain\\blockhain-ayi\\final-bk\\final-blockchain\\contracts\\StudentNotes.sol",
  "compiler": {
    "name": "solc",
    "version": "0.8.10+commit.fc410830.Emscripten.clang"
  },
  "schemaVersion": "3.4.9",
  "updatedAt": "2022-09-14T19:13:26.360Z",
  "networkType": "ethereum",
  "devdoc": {
    "kind": "dev",
    "methods": {},
    "version": 1
  },
  "userdoc": {
    "kind": "user",
    "methods": {},
    "version": 1
  }
}